{
  "_format": "hh-sol-artifact-1",
  "contractName": "SupplyChain",
  "sourceName": "contracts/SupplyChain.sol",
  "abi": [
    {
      "inputs": [],
      "stateMutability": "nonpayable",
      "type": "constructor"
    },
    {
      "inputs": [],
      "name": "IncorrectFee",
      "type": "error"
    },
    {
      "inputs": [],
      "name": "InvalidInput",
      "type": "error"
    },
    {
      "inputs": [],
      "name": "InvalidStatusTransition",
      "type": "error"
    },
    {
      "inputs": [],
      "name": "NotAuthorized",
      "type": "error"
    },
    {
      "inputs": [],
      "name": "NotOwner",
      "type": "error"
    },
    {
      "inputs": [],
      "name": "ProductExists",
      "type": "error"
    },
    {
      "anonymous": false,
      "inputs": [
        {
          "indexed": false,
          "internalType": "bytes32",
          "name": "productId",
          "type": "bytes32"
        },
        {
          "indexed": false,
          "internalType": "enum SupplyChain.HealthCondition",
          "name": "healthCondition",
          "type": "uint8"
        },
        {
          "indexed": true,
          "internalType": "address",
          "name": "updater",
          "type": "address"
        }
      ],
      "name": "HealthConditionUpdated",
      "type": "event"
    },
    {
      "anonymous": false,
      "inputs": [
        {
          "indexed": false,
          "internalType": "bytes32",
          "name": "productId",
          "type": "bytes32"
        },
        {
          "indexed": true,
          "internalType": "address",
          "name": "manufacturer",
          "type": "address"
        }
      ],
      "name": "ProductAdded",
      "type": "event"
    },
    {
      "anonymous": false,
      "inputs": [
        {
          "indexed": false,
          "internalType": "bytes32",
          "name": "productId",
          "type": "bytes32"
        },
        {
          "indexed": false,
          "internalType": "enum SupplyChain.Status",
          "name": "status",
          "type": "uint8"
        },
        {
          "indexed": true,
          "internalType": "address",
          "name": "updater",
          "type": "address"
        }
      ],
      "name": "ProductStatusUpdated",
      "type": "event"
    },
    {
      "inputs": [
        {
          "internalType": "string",
          "name": "_name",
          "type": "string"
        },
        {
          "internalType": "string",
          "name": "_serialNumber",
          "type": "string"
        },
        {
          "internalType": "address",
          "name": "_transporter",
          "type": "address"
        },
        {
          "internalType": "address",
          "name": "_consumer",
          "type": "address"
        },
        {
          "internalType": "enum SupplyChain.HealthCondition",
          "name": "_healthCondition",
          "type": "uint8"
        },
        {
          "internalType": "string",
          "name": "_destination",
          "type": "string"
        }
      ],
      "name": "addProduct",
      "outputs": [
        {
          "internalType": "bytes32",
          "name": "",
          "type": "bytes32"
        }
      ],
      "stateMutability": "payable",
      "type": "function"
    },
    {
      "inputs": [],
      "name": "creationFee",
      "outputs": [
        {
          "internalType": "uint256",
          "name": "",
          "type": "uint256"
        }
      ],
      "stateMutability": "view",
      "type": "function"
    },
    {
      "inputs": [],
      "name": "getAllProducts",
      "outputs": [
        {
          "components": [
            {
              "internalType": "bytes32",
              "name": "id",
              "type": "bytes32"
            },
            {
              "internalType": "string",
              "name": "name",
              "type": "string"
            },
            {
              "internalType": "string",
              "name": "serialNumber",
              "type": "string"
            },
            {
              "internalType": "enum SupplyChain.Status",
              "name": "status",
              "type": "uint8"
            },
            {
              "internalType": "address",
              "name": "manufacturer",
              "type": "address"
            },
            {
              "internalType": "address",
              "name": "transporter",
              "type": "address"
            },
            {
              "internalType": "address",
              "name": "consumer",
              "type": "address"
            },
            {
              "internalType": "enum SupplyChain.HealthCondition",
              "name": "healthCondition",
              "type": "uint8"
            },
            {
              "internalType": "string",
              "name": "destination",
              "type": "string"
            }
          ],
          "internalType": "struct SupplyChain.Product[]",
          "name": "",
          "type": "tuple[]"
        }
      ],
      "stateMutability": "view",
      "type": "function"
    },
    {
      "inputs": [
        {
          "internalType": "bytes32",
          "name": "_productId",
          "type": "bytes32"
        }
      ],
      "name": "getHealthCondition",
      "outputs": [
        {
          "internalType": "enum SupplyChain.HealthCondition",
          "name": "",
          "type": "uint8"
        }
      ],
      "stateMutability": "view",
      "type": "function"
    },
    {
      "inputs": [
        {
          "internalType": "bytes32",
          "name": "_productId",
          "type": "bytes32"
        }
      ],
      "name": "getProduct",
      "outputs": [
        {
          "components": [
            {
              "internalType": "bytes32",
              "name": "id",
              "type": "bytes32"
            },
            {
              "internalType": "string",
              "name": "name",
              "type": "string"
            },
            {
              "internalType": "string",
              "name": "serialNumber",
              "type": "string"
            },
            {
              "internalType": "enum SupplyChain.Status",
              "name": "status",
              "type": "uint8"
            },
            {
              "internalType": "address",
              "name": "manufacturer",
              "type": "address"
            },
            {
              "internalType": "address",
              "name": "transporter",
              "type": "address"
            },
            {
              "internalType": "address",
              "name": "consumer",
              "type": "address"
            },
            {
              "internalType": "enum SupplyChain.HealthCondition",
              "name": "healthCondition",
              "type": "uint8"
            },
            {
              "internalType": "string",
              "name": "destination",
              "type": "string"
            }
          ],
          "internalType": "struct SupplyChain.Product",
          "name": "",
          "type": "tuple"
        }
      ],
      "stateMutability": "view",
      "type": "function"
    },
    {
      "inputs": [
        {
          "internalType": "bytes32",
          "name": "_productId",
          "type": "bytes32"
        }
      ],
      "name": "getProductStatus",
      "outputs": [
        {
          "internalType": "enum SupplyChain.Status",
          "name": "",
          "type": "uint8"
        }
      ],
      "stateMutability": "view",
      "type": "function"
    },
    {
      "inputs": [],
      "name": "owner",
      "outputs": [
        {
          "internalType": "address",
          "name": "",
          "type": "address"
        }
      ],
      "stateMutability": "view",
      "type": "function"
    },
    {
      "inputs": [
        {
          "internalType": "uint256",
          "name": "_newFee",
          "type": "uint256"
        }
      ],
      "name": "updateCreationFee",
      "outputs": [],
      "stateMutability": "nonpayable",
      "type": "function"
    },
    {
      "inputs": [
        {
          "internalType": "bytes32",
          "name": "_productId",
          "type": "bytes32"
        },
        {
          "internalType": "enum SupplyChain.HealthCondition",
          "name": "_newHealthCondition",
          "type": "uint8"
        }
      ],
      "name": "updateHealthCondition",
      "outputs": [],
      "stateMutability": "nonpayable",
      "type": "function"
    },
    {
      "inputs": [
        {
          "internalType": "bytes32",
          "name": "_productId",
          "type": "bytes32"
        }
      ],
      "name": "updateStatusDelivered",
      "outputs": [],
      "stateMutability": "nonpayable",
      "type": "function"
    },
    {
      "inputs": [
        {
          "internalType": "bytes32",
          "name": "_productId",
          "type": "bytes32"
        }
      ],
      "name": "updateStatusInTransit",
      "outputs": [],
      "stateMutability": "nonpayable",
      "type": "function"
    },
    {
      "inputs": [],
      "name": "withdrawFunds",
      "outputs": [],
      "stateMutability": "nonpayable",
      "type": "function"
    }
  ],
  "bytecode": "0x608060405266038d7ea4c68000600355348015601a57600080fd5b50336000806101000a81548173ffffffffffffffffffffffffffffffffffffffff021916908373ffffffffffffffffffffffffffffffffffffffff16021790555061233c8061006a6000396000f3fe6080604052600436106100a75760003560e01c80636fa23795116100645780636fa23795146101c15780637bf5a238146101ea5780638da5cb5b14610213578063ae78c9771461023e578063dce0b4e414610267578063f286bbe814610292576100a7565b806302ee3a52146100ac57806324600fc3146100d75780633353a099146100ee5780633a20e9df1461011e578063528cb5de1461015b5780636a19f91f14610184575b600080fd5b3480156100b857600080fd5b506100c16102cf565b6040516100ce919061198e565b60405180910390f35b3480156100e357600080fd5b506100ec6106e6565b005b61010860048036038101906101039190611b4a565b610757565b6040516101159190611c3a565b60405180910390f35b34801561012a57600080fd5b5061014560048036038101906101409190611c81565b610b77565b6040516101529190611d81565b60405180910390f35b34801561016757600080fd5b50610182600480360381019061017d9190611c81565b610ee6565b005b34801561019057600080fd5b506101ab60048036038101906101a69190611c81565b61109d565b6040516101b89190611db2565b60405180910390f35b3480156101cd57600080fd5b506101e860048036038101906101e39190611e03565b6110d3565b005b3480156101f657600080fd5b50610211600480360381019061020c9190611e30565b6110e5565b005b34801561021f57600080fd5b50610228611180565b6040516102359190611e7f565b60405180910390f35b34801561024a57600080fd5b5061026560048036038101906102609190611c81565b6111a4565b005b34801561027357600080fd5b5061027c61135c565b6040516102899190611ea9565b60405180910390f35b34801561029e57600080fd5b506102b960048036038101906102b49190611c81565b611362565b6040516102c69190611ed3565b60405180910390f35b6060600060028054905067ffffffffffffffff8111156102f2576102f16119ce565b5b60405190808252806020026020018201604052801561032b57816020015b61031861159b565b8152602001906001900390816103105790505b50905060005b6002805490508110156106de57600160006002838154811061035657610355611eee565b5b90600052602060002001548152602001908152602001600020604051806101200160405290816000820154815260200160018201805461039590611f4c565b80601f01602080910402602001604051908101604052809291908181526020018280546103c190611f4c565b801561040e5780601f106103e35761010080835404028352916020019161040e565b820191906000526020600020905b8154815290600101906020018083116103f157829003601f168201915b5050505050815260200160028201805461042790611f4c565b80601f016020809104026020016040519081016040528092919081815260200182805461045390611f4c565b80156104a05780601f10610475576101008083540402835291602001916104a0565b820191906000526020600020905b81548152906001019060200180831161048357829003601f168201915b505050505081526020016003820160009054906101000a900460ff1660028111156104ce576104cd611725565b5b60028111156104e0576104df611725565b5b81526020016003820160019054906101000a900473ffffffffffffffffffffffffffffffffffffffff1673ffffffffffffffffffffffffffffffffffffffff1673ffffffffffffffffffffffffffffffffffffffff1681526020016004820160009054906101000a900473ffffffffffffffffffffffffffffffffffffffff1673ffffffffffffffffffffffffffffffffffffffff1673ffffffffffffffffffffffffffffffffffffffff1681526020016005820160009054906101000a900473ffffffffffffffffffffffffffffffffffffffff1673ffffffffffffffffffffffffffffffffffffffff1673ffffffffffffffffffffffffffffffffffffffff1681526020016005820160149054906101000a900460ff16600281111561060b5761060a611725565b5b600281111561061d5761061c611725565b5b815260200160068201805461063190611f4c565b80601f016020809104026020016040519081016040528092919081815260200182805461065d90611f4c565b80156106aa5780601f1061067f576101008083540402835291602001916106aa565b820191906000526020600020905b81548152906001019060200180831161068d57829003601f168201915b5050505050815250508282815181106106c6576106c5611eee565b5b60200260200101819052508080600101915050610331565b508091505090565b6106ee611398565b60008054906101000a900473ffffffffffffffffffffffffffffffffffffffff1673ffffffffffffffffffffffffffffffffffffffff166108fc479081150290604051600060405180830381858888f19350505050158015610754573d6000803e3d6000fd5b50565b60006003543414610794576040517fcd3cb2bb00000000000000000000000000000000000000000000000000000000815260040160405180910390fd5b6000875114806107a5575060008651145b806107b1575060008251145b156107e8576040517fb4fa3fb300000000000000000000000000000000000000000000000000000000815260040160405180910390fd5b60008787336040516020016107ff93929190612001565b604051602081830303815290604052805190602001209050600073ffffffffffffffffffffffffffffffffffffffff166001600083815260200190815260200160002060030160019054906101000a900473ffffffffffffffffffffffffffffffffffffffff1673ffffffffffffffffffffffffffffffffffffffff16146108b3576040517fb185df3a00000000000000000000000000000000000000000000000000000000815260040160405180910390fd5b604051806101200160405280828152602001898152602001888152602001600060028111156108e5576108e4611725565b5b81526020013373ffffffffffffffffffffffffffffffffffffffff1681526020018773ffffffffffffffffffffffffffffffffffffffff1681526020018673ffffffffffffffffffffffffffffffffffffffff16815260200185600281111561095157610950611725565b5b8152602001848152506001600083815260200190815260200160002060008201518160000155602082015181600101908161098c91906121e2565b5060408201518160020190816109a291906121e2565b5060608201518160030160006101000a81548160ff021916908360028111156109ce576109cd611725565b5b021790555060808201518160030160016101000a81548173ffffffffffffffffffffffffffffffffffffffff021916908373ffffffffffffffffffffffffffffffffffffffff16021790555060a08201518160040160006101000a81548173ffffffffffffffffffffffffffffffffffffffff021916908373ffffffffffffffffffffffffffffffffffffffff16021790555060c08201518160050160006101000a81548173ffffffffffffffffffffffffffffffffffffffff021916908373ffffffffffffffffffffffffffffffffffffffff16021790555060e08201518160050160146101000a81548160ff02191690836002811115610ad357610ad2611725565b5b0217905550610100820151816006019081610aee91906121e2565b5090505060028190806001815401808255809150506001900390600052602060002001600090919091909150553373ffffffffffffffffffffffffffffffffffffffff167f1b5a86e8aa6fd9fa3e28beb6a530dd4ef95fdde98e2e304c7723182eb11b496882604051610b619190611c3a565b60405180910390a2809150509695505050505050565b610b7f61159b565b610b888261141f565b600160008381526020019081526020016000206040518061012001604052908160008201548152602001600182018054610bc190611f4c565b80601f0160208091040260200160405190810160405280929190818152602001828054610bed90611f4c565b8015610c3a5780601f10610c0f57610100808354040283529160200191610c3a565b820191906000526020600020905b815481529060010190602001808311610c1d57829003601f168201915b50505050508152602001600282018054610c5390611f4c565b80601f0160208091040260200160405190810160405280929190818152602001828054610c7f90611f4c565b8015610ccc5780601f10610ca157610100808354040283529160200191610ccc565b820191906000526020600020905b815481529060010190602001808311610caf57829003601f168201915b505050505081526020016003820160009054906101000a900460ff166002811115610cfa57610cf9611725565b5b6002811115610d0c57610d0b611725565b5b81526020016003820160019054906101000a900473ffffffffffffffffffffffffffffffffffffffff1673ffffffffffffffffffffffffffffffffffffffff1673ffffffffffffffffffffffffffffffffffffffff1681526020016004820160009054906101000a900473ffffffffffffffffffffffffffffffffffffffff1673ffffffffffffffffffffffffffffffffffffffff1673ffffffffffffffffffffffffffffffffffffffff1681526020016005820160009054906101000a900473ffffffffffffffffffffffffffffffffffffffff1673ffffffffffffffffffffffffffffffffffffffff1673ffffffffffffffffffffffffffffffffffffffff1681526020016005820160149054906101000a900460ff166002811115610e3757610e36611725565b5b6002811115610e4957610e48611725565b5b8152602001600682018054610e5d90611f4c565b80601f0160208091040260200160405190810160405280929190818152602001828054610e8990611f4c565b8015610ed65780601f10610eab57610100808354040283529160200191610ed6565b820191906000526020600020905b815481529060010190602001808311610eb957829003601f168201915b5050505050815250509050919050565b610eef8161141f565b6001600082815260200190815260200160002060040160009054906101000a900473ffffffffffffffffffffffffffffffffffffffff1673ffffffffffffffffffffffffffffffffffffffff163373ffffffffffffffffffffffffffffffffffffffff1614610f8a576040517fea8e4eb500000000000000000000000000000000000000000000000000000000815260040160405180910390fd5b60006002811115610f9e57610f9d611725565b5b6001600083815260200190815260200160002060030160009054906101000a900460ff166002811115610fd457610fd3611725565b5b1461100b576040517f1117a64600000000000000000000000000000000000000000000000000000000815260040160405180910390fd5b600180600083815260200190815260200160002060030160006101000a81548160ff0219169083600281111561104457611043611725565b5b02179055503373ffffffffffffffffffffffffffffffffffffffff167fe749a9687f84a648477c9786ece99fc7c4940fa19d7a06d5e93dec4359262efb8260016040516110929291906122b4565b60405180910390a250565b60006110a88261141f565b6001600083815260200190815260200160002060030160009054906101000a900460ff169050919050565b6110db611398565b8060038190555050565b6110ee8261141f565b806001600084815260200190815260200160002060050160146101000a81548160ff0219169083600281111561112757611126611725565b5b02179055503373ffffffffffffffffffffffffffffffffffffffff167f9e18b20e09cdf8593ef475667f54d721c89d381dabf4d31afff7629d8b410bdc83836040516111749291906122dd565b60405180910390a25050565b60008054906101000a900473ffffffffffffffffffffffffffffffffffffffff1681565b6111ad8161141f565b6001600082815260200190815260200160002060050160009054906101000a900473ffffffffffffffffffffffffffffffffffffffff1673ffffffffffffffffffffffffffffffffffffffff163373ffffffffffffffffffffffffffffffffffffffff1614611248576040517fea8e4eb500000000000000000000000000000000000000000000000000000000815260040160405180910390fd5b6001600281111561125c5761125b611725565b5b6001600083815260200190815260200160002060030160009054906101000a900460ff16600281111561129257611291611725565b5b146112c9576040517f1117a64600000000000000000000000000000000000000000000000000000000815260040160405180910390fd5b60026001600083815260200190815260200160002060030160006101000a81548160ff0219169083600281111561130357611302611725565b5b02179055503373ffffffffffffffffffffffffffffffffffffffff167fe749a9687f84a648477c9786ece99fc7c4940fa19d7a06d5e93dec4359262efb8260026040516113519291906122b4565b60405180910390a250565b60035481565b600061136d8261141f565b6001600083815260200190815260200160002060050160149054906101000a900460ff169050919050565b60008054906101000a900473ffffffffffffffffffffffffffffffffffffffff1673ffffffffffffffffffffffffffffffffffffffff163373ffffffffffffffffffffffffffffffffffffffff161461141d576040517f30cd747100000000000000000000000000000000000000000000000000000000815260040160405180910390fd5b565b6001600082815260200190815260200160002060030160019054906101000a900473ffffffffffffffffffffffffffffffffffffffff1673ffffffffffffffffffffffffffffffffffffffff163373ffffffffffffffffffffffffffffffffffffffff16141580156114f357506001600082815260200190815260200160002060040160009054906101000a900473ffffffffffffffffffffffffffffffffffffffff1673ffffffffffffffffffffffffffffffffffffffff163373ffffffffffffffffffffffffffffffffffffffff1614155b801561156157506001600082815260200190815260200160002060050160009054906101000a900473ffffffffffffffffffffffffffffffffffffffff1673ffffffffffffffffffffffffffffffffffffffff163373ffffffffffffffffffffffffffffffffffffffff1614155b15611598576040517fea8e4eb500000000000000000000000000000000000000000000000000000000815260040160405180910390fd5b50565b604051806101200160405280600080191681526020016060815260200160608152602001600060028111156115d3576115d2611725565b5b8152602001600073ffffffffffffffffffffffffffffffffffffffff168152602001600073ffffffffffffffffffffffffffffffffffffffff168152602001600073ffffffffffffffffffffffffffffffffffffffff1681526020016000600281111561164357611642611725565b5b8152602001606081525090565b600081519050919050565b600082825260208201905092915050565b6000819050602082019050919050565b6000819050919050565b61168f8161167c565b82525050565b600081519050919050565b600082825260208201905092915050565b60005b838110156116cf5780820151818401526020810190506116b4565b60008484015250505050565b6000601f19601f8301169050919050565b60006116f782611695565b61170181856116a0565b93506117118185602086016116b1565b61171a816116db565b840191505092915050565b7f4e487b7100000000000000000000000000000000000000000000000000000000600052602160045260246000fd5b6003811061176557611764611725565b5b50565b600081905061177682611754565b919050565b600061178682611768565b9050919050565b6117968161177b565b82525050565b600073ffffffffffffffffffffffffffffffffffffffff82169050919050565b60006117c78261179c565b9050919050565b6117d7816117bc565b82525050565b600381106117ee576117ed611725565b5b50565b60008190506117ff826117dd565b919050565b600061180f826117f1565b9050919050565b61181f81611804565b82525050565b60006101208301600083015161183e6000860182611686565b506020830151848203602086015261185682826116ec565b9150506040830151848203604086015261187082826116ec565b9150506060830151611885606086018261178d565b50608083015161189860808601826117ce565b5060a08301516118ab60a08601826117ce565b5060c08301516118be60c08601826117ce565b5060e08301516118d160e0860182611816565b506101008301518482036101008601526118eb82826116ec565b9150508091505092915050565b60006119048383611825565b905092915050565b6000602082019050919050565b600061192482611650565b61192e818561165b565b9350836020820285016119408561166c565b8060005b8581101561197c578484038952815161195d85826118f8565b94506119688361190c565b925060208a01995050600181019050611944565b50829750879550505050505092915050565b600060208201905081810360008301526119a88184611919565b905092915050565b6000604051905090565b600080fd5b600080fd5b600080fd5b600080fd5b7f4e487b7100000000000000000000000000000000000000000000000000000000600052604160045260246000fd5b611a06826116db565b810181811067ffffffffffffffff82111715611a2557611a246119ce565b5b80604052505050565b6000611a386119b0565b9050611a4482826119fd565b919050565b600067ffffffffffffffff821115611a6457611a636119ce565b5b611a6d826116db565b9050602081019050919050565b82818337600083830152505050565b6000611a9c611a9784611a49565b611a2e565b905082815260208101848484011115611ab857611ab76119c9565b5b611ac3848285611a7a565b509392505050565b600082601f830112611ae057611adf6119c4565b5b8135611af0848260208601611a89565b91505092915050565b611b02816117bc565b8114611b0d57600080fd5b50565b600081359050611b1f81611af9565b92915050565b60038110611b3257600080fd5b50565b600081359050611b4481611b25565b92915050565b60008060008060008060c08789031215611b6757611b666119ba565b5b600087013567ffffffffffffffff811115611b8557611b846119bf565b5b611b9189828a01611acb565b965050602087013567ffffffffffffffff811115611bb257611bb16119bf565b5b611bbe89828a01611acb565b9550506040611bcf89828a01611b10565b9450506060611be089828a01611b10565b9350506080611bf189828a01611b35565b92505060a087013567ffffffffffffffff811115611c1257611c116119bf565b5b611c1e89828a01611acb565b9150509295509295509295565b611c348161167c565b82525050565b6000602082019050611c4f6000830184611c2b565b92915050565b611c5e8161167c565b8114611c6957600080fd5b50565b600081359050611c7b81611c55565b92915050565b600060208284031215611c9757611c966119ba565b5b6000611ca584828501611c6c565b91505092915050565b600061012083016000830151611cc76000860182611686565b5060208301518482036020860152611cdf82826116ec565b91505060408301518482036040860152611cf982826116ec565b9150506060830151611d0e606086018261178d565b506080830151611d2160808601826117ce565b5060a0830151611d3460a08601826117ce565b5060c0830151611d4760c08601826117ce565b5060e0830151611d5a60e0860182611816565b50610100830151848203610100860152611d7482826116ec565b9150508091505092915050565b60006020820190508181036000830152611d9b8184611cae565b905092915050565b611dac8161177b565b82525050565b6000602082019050611dc76000830184611da3565b92915050565b6000819050919050565b611de081611dcd565b8114611deb57600080fd5b50565b600081359050611dfd81611dd7565b92915050565b600060208284031215611e1957611e186119ba565b5b6000611e2784828501611dee565b91505092915050565b60008060408385031215611e4757611e466119ba565b5b6000611e5585828601611c6c565b9250506020611e6685828601611b35565b9150509250929050565b611e79816117bc565b82525050565b6000602082019050611e946000830184611e70565b92915050565b611ea381611dcd565b82525050565b6000602082019050611ebe6000830184611e9a565b92915050565b611ecd81611804565b82525050565b6000602082019050611ee86000830184611ec4565b92915050565b7f4e487b7100000000000000000000000000000000000000000000000000000000600052603260045260246000fd5b7f4e487b7100000000000000000000000000000000000000000000000000000000600052602260045260246000fd5b60006002820490506001821680611f6457607f821691505b602082108103611f7757611f76611f1d565b5b50919050565b600081905092915050565b6000611f9382611695565b611f9d8185611f7d565b9350611fad8185602086016116b1565b80840191505092915050565b60008160601b9050919050565b6000611fd182611fb9565b9050919050565b6000611fe382611fc6565b9050919050565b611ffb611ff6826117bc565b611fd8565b82525050565b600061200d8286611f88565b91506120198285611f88565b91506120258284611fea565b601482019150819050949350505050565b60008190508160005260206000209050919050565b60006020601f8301049050919050565b600082821b905092915050565b6000600883026120987fffffffffffffffffffffffffffffffffffffffffffffffffffffffffffffffff8261205b565b6120a2868361205b565b95508019841693508086168417925050509392505050565b6000819050919050565b60006120df6120da6120d584611dcd565b6120ba565b611dcd565b9050919050565b6000819050919050565b6120f9836120c4565b61210d612105826120e6565b848454612068565b825550505050565b600090565b612122612115565b61212d8184846120f0565b505050565b5b818110156121515761214660008261211a565b600181019050612133565b5050565b601f8211156121965761216781612036565b6121708461204b565b8101602085101561217f578190505b61219361218b8561204b565b830182612132565b50505b505050565b600082821c905092915050565b60006121b96000198460080261219b565b1980831691505092915050565b60006121d283836121a8565b9150826002028217905092915050565b6121eb82611695565b67ffffffffffffffff811115612204576122036119ce565b5b61220e8254611f4c565b612219828285612155565b600060209050601f83116001811461224c576000841561223a578287015190505b61224485826121c6565b8655506122ac565b601f19841661225a86612036565b60005b828110156122825784890151825560018201915060208501945060208101905061225d565b8683101561229f578489015161229b601f8916826121a8565b8355505b6001600288020188555050505b505050505050565b60006040820190506122c96000830185611c2b565b6122d66020830184611da3565b9392505050565b60006040820190506122f26000830185611c2b565b6122ff6020830184611ec4565b939250505056fea264697066735822122066cd6009f57c66e05037cac02d130ee96839eed20ea870f61f079b6848ca375164736f6c634300081a0033",
  "linkReferences": {},
  "deployedLinkReferences": {}
}